{
  "contractName": "Rill",
  "abi": [
    {
      "anonymous": false,
      "inputs": [
        {
          "indexed": true,
          "internalType": "uint256",
          "name": "bountyId",
          "type": "uint256"
        },
        {
          "indexed": false,
          "internalType": "address",
          "name": "collector",
          "type": "address"
        }
      ],
      "name": "BountyCollected",
      "type": "event"
    },
    {
      "anonymous": false,
      "inputs": [
        {
          "indexed": true,
          "internalType": "uint256",
          "name": "bountyId",
          "type": "uint256"
        },
        {
          "indexed": false,
          "internalType": "uint256",
          "name": "tournamentId",
          "type": "uint256"
        },
        {
          "indexed": false,
          "internalType": "address",
          "name": "player",
          "type": "address"
        },
        {
          "indexed": false,
          "internalType": "uint256",
          "name": "amount",
          "type": "uint256"
        }
      ],
      "name": "BountyPlaced",
      "type": "event"
    },
    {
      "anonymous": false,
      "inputs": [
        {
          "indexed": true,
          "internalType": "uint256",
          "name": "tournamentId",
          "type": "uint256"
        }
      ],
      "name": "EndTournament",
      "type": "event"
    },
    {
      "anonymous": false,
      "inputs": [
        {
          "indexed": true,
          "internalType": "uint256",
          "name": "tournamentId",
          "type": "uint256"
        }
      ],
      "name": "NewTeam",
      "type": "event"
    },
    {
      "anonymous": false,
      "inputs": [
        {
          "indexed": true,
          "internalType": "uint256",
          "name": "tournamentId",
          "type": "uint256"
        }
      ],
      "name": "NewTournament",
      "type": "event"
    },
    {
      "anonymous": false,
      "inputs": [
        {
          "indexed": true,
          "internalType": "uint256",
          "name": "tournamentId",
          "type": "uint256"
        },
        {
          "indexed": false,
          "internalType": "address",
          "name": "player",
          "type": "address"
        }
      ],
      "name": "NewTournamentRegistration",
      "type": "event"
    },
    {
      "anonymous": false,
      "inputs": [
        {
          "indexed": true,
          "internalType": "uint256",
          "name": "teamId",
          "type": "uint256"
        },
        {
          "indexed": false,
          "internalType": "address[]",
          "name": "players",
          "type": "address[]"
        }
      ],
      "name": "PlayersAssignedToTeam",
      "type": "event"
    },
    {
      "inputs": [
        {
          "internalType": "uint256",
          "name": "",
          "type": "uint256"
        }
      ],
      "name": "bounties",
      "outputs": [
        {
          "internalType": "uint256",
          "name": "tournamentId",
          "type": "uint256"
        },
        {
          "internalType": "address",
          "name": "placer",
          "type": "address"
        },
        {
          "internalType": "address",
          "name": "collector",
          "type": "address"
        },
        {
          "internalType": "address",
          "name": "player",
          "type": "address"
        },
        {
          "internalType": "uint256",
          "name": "amount",
          "type": "uint256"
        },
        {
          "internalType": "bool",
          "name": "collected",
          "type": "bool"
        }
      ],
      "stateMutability": "view",
      "type": "function",
      "constant": true
    },
    {
      "inputs": [],
      "name": "bountyId",
      "outputs": [
        {
          "internalType": "uint256",
          "name": "",
          "type": "uint256"
        }
      ],
      "stateMutability": "view",
      "type": "function",
      "constant": true
    },
    {
      "inputs": [],
      "name": "owner",
      "outputs": [
        {
          "internalType": "address",
          "name": "",
          "type": "address"
        }
      ],
      "stateMutability": "view",
      "type": "function",
      "constant": true
    },
    {
      "inputs": [
        {
          "internalType": "address",
          "name": "",
          "type": "address"
        }
      ],
      "name": "playersInTeam",
      "outputs": [
        {
          "internalType": "uint256",
          "name": "",
          "type": "uint256"
        }
      ],
      "stateMutability": "view",
      "type": "function",
      "constant": true
    },
    {
      "inputs": [],
      "name": "teamId",
      "outputs": [
        {
          "internalType": "uint256",
          "name": "",
          "type": "uint256"
        }
      ],
      "stateMutability": "view",
      "type": "function",
      "constant": true
    },
    {
      "inputs": [
        {
          "internalType": "uint256",
          "name": "",
          "type": "uint256"
        }
      ],
      "name": "teams",
      "outputs": [
        {
          "internalType": "string",
          "name": "name",
          "type": "string"
        },
        {
          "internalType": "string",
          "name": "logo",
          "type": "string"
        }
      ],
      "stateMutability": "view",
      "type": "function",
      "constant": true
    },
    {
      "inputs": [],
      "name": "tournamentId",
      "outputs": [
        {
          "internalType": "uint256",
          "name": "",
          "type": "uint256"
        }
      ],
      "stateMutability": "view",
      "type": "function",
      "constant": true
    },
    {
      "inputs": [
        {
          "internalType": "uint256",
          "name": "",
          "type": "uint256"
        }
      ],
      "name": "tournaments",
      "outputs": [
        {
          "internalType": "uint256",
          "name": "tournamentType",
          "type": "uint256"
        },
        {
          "internalType": "string",
          "name": "name",
          "type": "string"
        },
        {
          "internalType": "bool",
          "name": "ongoing",
          "type": "bool"
        },
        {
          "internalType": "uint256",
          "name": "fee",
          "type": "uint256"
        },
        {
          "internalType": "address",
          "name": "owner",
          "type": "address"
        }
      ],
      "stateMutability": "view",
      "type": "function",
      "constant": true
    },
    {
      "inputs": [
        {
          "internalType": "uint256",
          "name": "tournamentType",
          "type": "uint256"
        },
        {
          "internalType": "string",
          "name": "name",
          "type": "string"
        },
        {
          "internalType": "uint256[]",
          "name": "_teamIds",
          "type": "uint256[]"
        },
        {
          "internalType": "address[]",
          "name": "players",
          "type": "address[]"
        },
        {
          "internalType": "uint256",
          "name": "fee",
          "type": "uint256"
        },
        {
          "internalType": "uint256[]",
          "name": "prize",
          "type": "uint256[]"
        },
        {
          "internalType": "uint256[]",
          "name": "badges",
          "type": "uint256[]"
        }
      ],
      "name": "createTournament",
      "outputs": [
        {
          "internalType": "bool",
          "name": "success",
          "type": "bool"
        }
      ],
      "stateMutability": "nonpayable",
      "type": "function"
    },
    {
      "inputs": [
        {
          "internalType": "uint256",
          "name": "_tournamentId",
          "type": "uint256"
        },
        {
          "internalType": "uint256",
          "name": "_teamId",
          "type": "uint256"
        }
      ],
      "name": "registerTeamForTournament",
      "outputs": [
        {
          "internalType": "bool",
          "name": "",
          "type": "bool"
        }
      ],
      "stateMutability": "payable",
      "type": "function",
      "payable": true
    },
    {
      "inputs": [
        {
          "internalType": "uint256",
          "name": "_tournamentId",
          "type": "uint256"
        },
        {
          "internalType": "address[]",
          "name": "winners",
          "type": "address[]"
        }
      ],
      "name": "endTournament",
      "outputs": [
        {
          "internalType": "bool",
          "name": "success",
          "type": "bool"
        }
      ],
      "stateMutability": "nonpayable",
      "type": "function"
    },
    {
      "inputs": [
        {
          "internalType": "string",
          "name": "name",
          "type": "string"
        },
        {
          "internalType": "string",
          "name": "logo",
          "type": "string"
        },
        {
          "internalType": "address[]",
          "name": "players",
          "type": "address[]"
        }
      ],
      "name": "createTeam",
      "outputs": [
        {
          "internalType": "bool",
          "name": "success",
          "type": "bool"
        }
      ],
      "stateMutability": "nonpayable",
      "type": "function"
    },
    {
      "inputs": [
        {
          "internalType": "uint256",
          "name": "_teamId",
          "type": "uint256"
        },
        {
          "internalType": "address[]",
          "name": "_players",
          "type": "address[]"
        }
      ],
      "name": "assignPlayersToTeam",
      "outputs": [
        {
          "internalType": "bool",
          "name": "success",
          "type": "bool"
        }
      ],
      "stateMutability": "nonpayable",
      "type": "function"
    },
    {
      "inputs": [
        {
          "internalType": "uint256",
          "name": "_tournamentId",
          "type": "uint256"
        },
        {
          "internalType": "address",
          "name": "_player",
          "type": "address"
        },
        {
          "internalType": "uint256",
          "name": "_amount",
          "type": "uint256"
        }
      ],
      "name": "placeBounty",
      "outputs": [
        {
          "internalType": "bool",
          "name": "",
          "type": "bool"
        }
      ],
      "stateMutability": "payable",
      "type": "function",
      "payable": true
    },
    {
      "inputs": [
        {
          "internalType": "uint256",
          "name": "_bountyId",
          "type": "uint256"
        },
        {
          "internalType": "address",
          "name": "_collector",
          "type": "address"
        }
      ],
      "name": "collectBounty",
      "outputs": [
        {
          "internalType": "bool",
          "name": "success",
          "type": "bool"
        }
      ],
      "stateMutability": "nonpayable",
      "type": "function"
    }
  ],
  "bytecode": "0x608060405234801561001057600080fd5b5061001f61006360201b60201c565b6000806101000a81548173ffffffffffffffffffffffffffffffffffffffff021916908373ffffffffffffffffffffffffffffffffffffffff16021790555061006b565b600033905090565b6121f68061007a6000396000f3fe6080604052600436106100e85760003560e01c80637503e1b71161008a578063e1ed848e11610059578063e1ed848e14610346578063ed56344214610383578063efdd880e146103c0578063f809ab43146103fd576100e8565b80637503e1b71461026d5780638da5cb5b146102ae578063c17bd75e146102d9578063dc2f874414610304576100e8565b80633ed2b77a116100c65780633ed2b77a146101975780635f36788e146101d557806369ec37d8146102125780636dfc734f14610242576100e8565b806309761c6f146100ed5780630eb6d5521461012a5780633d17ccd41461015a575b600080fd5b3480156100f957600080fd5b50610114600480360381019061010f91906114aa565b610428565b60405161012191906114f0565b60405180910390f35b610144600480360381019061013f9190611537565b610440565b60405161015191906115a5565b60405180910390f35b34801561016657600080fd5b50610181600480360381019061017c9190611891565b6106cf565b60405161018e91906115a5565b60405180910390f35b3480156101a357600080fd5b506101be60048036038101906101b991906119bf565b61091a565b6040516101cc929190611a74565b60405180910390f35b3480156101e157600080fd5b506101fc60048036038101906101f79190611aab565b610a4e565b60405161020991906115a5565b60405180910390f35b61022c60048036038101906102279190611b52565b610b17565b60405161023991906115a5565b60405180910390f35b34801561024e57600080fd5b50610257610d4d565b60405161026491906114f0565b60405180910390f35b34801561027957600080fd5b50610294600480360381019061028f91906119bf565b610d53565b6040516102a5959493929190611ba1565b60405180910390f35b3480156102ba57600080fd5b506102c3610e3e565b6040516102d09190611bfb565b60405180910390f35b3480156102e557600080fd5b506102ee610e62565b6040516102fb91906114f0565b60405180910390f35b34801561031057600080fd5b5061032b600480360381019061032691906119bf565b610e68565b60405161033d96959493929190611c16565b60405180910390f35b34801561035257600080fd5b5061036d60048036038101906103689190611c77565b610f11565b60405161037a91906115a5565b60405180910390f35b34801561038f57600080fd5b506103aa60048036038101906103a59190611c77565b610fd6565b6040516103b791906115a5565b60405180910390f35b3480156103cc57600080fd5b506103e760048036038101906103e29190611cd3565b6110ef565b6040516103f491906115a5565b60405180910390f35b34801561040957600080fd5b50610412611200565b60405161041f91906114f0565b60405180910390f35b60076020528060005260406000206000915090505481565b60008161044b611206565b101561048c576040517f08c379a000000000000000000000000000000000000000000000000000000000815260040161048390611d5f565b60405180910390fd5b60006040518060c001604052808681526020016104a761120e565b73ffffffffffffffffffffffffffffffffffffffff168152602001600073ffffffffffffffffffffffffffffffffffffffff1681526020018573ffffffffffffffffffffffffffffffffffffffff1681526020018481526020016000151581525090506000600260008781526020019081526020016000209050816004600060035481526020019081526020016000206000820151816000015560208201518160010160006101000a81548173ffffffffffffffffffffffffffffffffffffffff021916908373ffffffffffffffffffffffffffffffffffffffff16021790555060408201518160020160006101000a81548173ffffffffffffffffffffffffffffffffffffffff021916908373ffffffffffffffffffffffffffffffffffffffff16021790555060608201518160030160006101000a81548173ffffffffffffffffffffffffffffffffffffffff021916908373ffffffffffffffffffffffffffffffffffffffff1602179055506080820151816004015560a08201518160050160006101000a81548160ff0219169083151502179055509050508060080160035490806001815401808255809150506001900390600052602060002001600090919091909150556003600081548092919061068390611dae565b919050557f3d63ccfc1cf9a494fa21a803705053b45db516a3fb8521970ee74775583c8f808787876040516106ba93929190611df7565b60405180910390a26001925050509392505050565b6000806040518061014001604052808a8152602001898152602001600015158152602001888152602001878152602001868152602001858152602001848152602001600067ffffffffffffffff81111561072c5761072b6115db565b5b60405190808252806020026020018201604052801561075a5781602001602082028036833780820191505090505b50815260200161076861120e565b73ffffffffffffffffffffffffffffffffffffffff168152509050806002600060015481526020019081526020016000206000820151816000015560208201518160010190805190602001906107bf9291906112be565b5060408201518160020160006101000a81548160ff02191690831515021790555060608201518160030190805190602001906107fc929190611344565b506080820151816004019080519060200190610819929190611391565b5060a0820151816005015560c0820151816006019080519060200190610840929190611344565b5060e082015181600701908051906020019061085d929190611344565b5061010082015181600801908051906020019061087b929190611344565b506101208201518160090160006101000a81548173ffffffffffffffffffffffffffffffffffffffff021916908373ffffffffffffffffffffffffffffffffffffffff160217905550905050600160008154809291906108da90611dae565b919050557fbaf4e2b9ba5fe2da49890ad142f4fef2ae4d4c6d2e140e930152f127f076707860405160405180910390a26001915050979650505050505050565b600660205280600052604060002060009150905080600001805461093d90611e5d565b80601f016020809104026020016040519081016040528092919081815260200182805461096990611e5d565b80156109b65780601f1061098b576101008083540402835291602001916109b6565b820191906000526020600020905b81548152906001019060200180831161099957829003601f168201915b5050505050908060010180546109cb90611e5d565b80601f01602080910402602001604051908101604052809291908181526020018280546109f790611e5d565b8015610a445780601f10610a1957610100808354040283529160200191610a44565b820191906000526020600020905b815481529060010190602001808311610a2757829003601f168201915b5050505050905082565b6000806040518060400160405280868152602001858152509050806006600060055481526020019081526020016000206000820151816000019080519060200190610a9a9291906112be565b506020820151816001019080519060200190610ab79291906112be565b50905050610ac760055484610f11565b5060056000815480929190610adb90611dae565b919050557fa90ad43b37352ebc1e46954a3f2d064584b9afe4c9dbb1f88d191260e12a410e60405160405180910390a260019150509392505050565b600080600260008581526020019081526020016000209050600015158160020160009054906101000a900460ff16151514610b87576040517f08c379a0000000000000000000000000000000000000000000000000000000008152600401610b7e90611f01565b60405180910390fd5b8260076000610b9461120e565b73ffffffffffffffffffffffffffffffffffffffff1673ffffffffffffffffffffffffffffffffffffffff1681526020019081526020016000205414610c0f576040517f08c379a0000000000000000000000000000000000000000000000000000000008152600401610c0690611f6d565b60405180910390fd5b8060050154610c1c611206565b1015610c5d576040517f08c379a0000000000000000000000000000000000000000000000000000000008152600401610c5490611d5f565b60405180910390fd5b6000831115610c965780600301839080600181540180825580915050600190039060005260206000200160009091909190915055610d03565b80600401610ca261120e565b9080600181540180825580915050600190039060005260206000200160009091909190916101000a81548173ffffffffffffffffffffffffffffffffffffffff021916908373ffffffffffffffffffffffffffffffffffffffff1602179055505b837f061e2a4a55019af3187afee094f1333ee4bf8aec0a1a86ea18c2579b3898ece4610d2d61120e565b604051610d3a9190611bfb565b60405180910390a2600191505092915050565b60055481565b6002602052806000526040600020600091509050806000015490806001018054610d7c90611e5d565b80601f0160208091040260200160405190810160405280929190818152602001828054610da890611e5d565b8015610df55780601f10610dca57610100808354040283529160200191610df5565b820191906000526020600020905b815481529060010190602001808311610dd857829003601f168201915b5050505050908060020160009054906101000a900460ff16908060050154908060090160009054906101000a900473ffffffffffffffffffffffffffffffffffffffff16905085565b60008054906101000a900473ffffffffffffffffffffffffffffffffffffffff1681565b60035481565b60046020528060005260406000206000915090508060000154908060010160009054906101000a900473ffffffffffffffffffffffffffffffffffffffff16908060020160009054906101000a900473ffffffffffffffffffffffffffffffffffffffff16908060030160009054906101000a900473ffffffffffffffffffffffffffffffffffffffff16908060040154908060050160009054906101000a900460ff16905086565b600080600090505b8251811015610f93578360076000858481518110610f3a57610f39611f8d565b5b602002602001015173ffffffffffffffffffffffffffffffffffffffff1673ffffffffffffffffffffffffffffffffffffffff168152602001908152602001600020819055508080610f8b90611dae565b915050610f19565b50827f2a32fb531d9fa417e0518b30ccf4127c8a703a8cfdcbac09a7b634065596726383604051610fc4919061207a565b60405180910390a26001905092915050565b6000610fe0611216565b61101f576040517f08c379a00000000000000000000000000000000000000000000000000000000081526004016110169061210e565b60405180910390fd5b600060026000858152602001908152602001600020905060008160020160006101000a81548160ff02191690831515021790555060005b83518110156110b6576110a384828151811061107557611074611f8d565b5b602002602001015183600601838154811061109357611092611f8d565b5b9060005260206000200154611273565b80806110ae90611dae565b915050611056565b50837f3e9cd1784d3214f9b90cc67cdfdd6e3c5c10d960b2c440e847c0c0c6765bb19060405160405180910390a2600191505092915050565b60006110f9611216565b611138576040517f08c379a000000000000000000000000000000000000000000000000000000000815260040161112f906121a0565b60405180910390fd5b600060046000858152602001908152602001600020905060018160050160006101000a81548160ff021916908315150217905550828160020160006101000a81548173ffffffffffffffffffffffffffffffffffffffff021916908373ffffffffffffffffffffffffffffffffffffffff1602179055506111bd838260040154611273565b837f133325c9659d348ddcdbeb46c38abf95fd5bd75448d5335475bde00bd3cc0905846040516111ed9190611bfb565b60405180910390a2600191505092915050565b60015481565b600034905090565b600033905090565b600061122061120e565b73ffffffffffffffffffffffffffffffffffffffff1660008054906101000a900473ffffffffffffffffffffffffffffffffffffffff1673ffffffffffffffffffffffffffffffffffffffff1614905090565b8173ffffffffffffffffffffffffffffffffffffffff166108fc829081150290604051600060405180830381858888f193505050501580156112b9573d6000803e3d6000fd5b505050565b8280546112ca90611e5d565b90600052602060002090601f0160209004810192826112ec5760008555611333565b82601f1061130557805160ff1916838001178555611333565b82800160010185558215611333579182015b82811115611332578251825591602001919060010190611317565b5b509050611340919061141b565b5090565b828054828255906000526020600020908101928215611380579160200282015b8281111561137f578251825591602001919060010190611364565b5b50905061138d919061141b565b5090565b82805482825590600052602060002090810192821561140a579160200282015b828111156114095782518260006101000a81548173ffffffffffffffffffffffffffffffffffffffff021916908373ffffffffffffffffffffffffffffffffffffffff160217905550916020019190600101906113b1565b5b509050611417919061141b565b5090565b5b8082111561143457600081600090555060010161141c565b5090565b6000604051905090565b600080fd5b600080fd5b600073ffffffffffffffffffffffffffffffffffffffff82169050919050565b60006114778261144c565b9050919050565b6114878161146c565b811461149257600080fd5b50565b6000813590506114a48161147e565b92915050565b6000602082840312156114c0576114bf611442565b5b60006114ce84828501611495565b91505092915050565b6000819050919050565b6114ea816114d7565b82525050565b600060208201905061150560008301846114e1565b92915050565b611514816114d7565b811461151f57600080fd5b50565b6000813590506115318161150b565b92915050565b6000806000606084860312156115505761154f611442565b5b600061155e86828701611522565b935050602061156f86828701611495565b925050604061158086828701611522565b9150509250925092565b60008115159050919050565b61159f8161158a565b82525050565b60006020820190506115ba6000830184611596565b92915050565b600080fd5b600080fd5b6000601f19601f8301169050919050565b7f4e487b7100000000000000000000000000000000000000000000000000000000600052604160045260246000fd5b611613826115ca565b810181811067ffffffffffffffff82111715611632576116316115db565b5b80604052505050565b6000611645611438565b9050611651828261160a565b919050565b600067ffffffffffffffff821115611671576116706115db565b5b61167a826115ca565b9050602081019050919050565b82818337600083830152505050565b60006116a96116a484611656565b61163b565b9050828152602081018484840111156116c5576116c46115c5565b5b6116d0848285611687565b509392505050565b600082601f8301126116ed576116ec6115c0565b5b81356116fd848260208601611696565b91505092915050565b600067ffffffffffffffff821115611721576117206115db565b5b602082029050602081019050919050565b600080fd5b600061174a61174584611706565b61163b565b9050808382526020820190506020840283018581111561176d5761176c611732565b5b835b8181101561179657806117828882611522565b84526020840193505060208101905061176f565b5050509392505050565b600082601f8301126117b5576117b46115c0565b5b81356117c5848260208601611737565b91505092915050565b600067ffffffffffffffff8211156117e9576117e86115db565b5b602082029050602081019050919050565b600061180d611808846117ce565b61163b565b905080838252602082019050602084028301858111156118305761182f611732565b5b835b8181101561185957806118458882611495565b845260208401935050602081019050611832565b5050509392505050565b600082601f830112611878576118776115c0565b5b81356118888482602086016117fa565b91505092915050565b600080600080600080600060e0888a0312156118b0576118af611442565b5b60006118be8a828b01611522565b975050602088013567ffffffffffffffff8111156118df576118de611447565b5b6118eb8a828b016116d8565b965050604088013567ffffffffffffffff81111561190c5761190b611447565b5b6119188a828b016117a0565b955050606088013567ffffffffffffffff81111561193957611938611447565b5b6119458a828b01611863565b94505060806119568a828b01611522565b93505060a088013567ffffffffffffffff81111561197757611976611447565b5b6119838a828b016117a0565b92505060c088013567ffffffffffffffff8111156119a4576119a3611447565b5b6119b08a828b016117a0565b91505092959891949750929550565b6000602082840312156119d5576119d4611442565b5b60006119e384828501611522565b91505092915050565b600081519050919050565b600082825260208201905092915050565b60005b83811015611a26578082015181840152602081019050611a0b565b83811115611a35576000848401525b50505050565b6000611a46826119ec565b611a5081856119f7565b9350611a60818560208601611a08565b611a69816115ca565b840191505092915050565b60006040820190508181036000830152611a8e8185611a3b565b90508181036020830152611aa28184611a3b565b90509392505050565b600080600060608486031215611ac457611ac3611442565b5b600084013567ffffffffffffffff811115611ae257611ae1611447565b5b611aee868287016116d8565b935050602084013567ffffffffffffffff811115611b0f57611b0e611447565b5b611b1b868287016116d8565b925050604084013567ffffffffffffffff811115611b3c57611b3b611447565b5b611b4886828701611863565b9150509250925092565b60008060408385031215611b6957611b68611442565b5b6000611b7785828601611522565b9250506020611b8885828601611522565b9150509250929050565b611b9b8161146c565b82525050565b600060a082019050611bb660008301886114e1565b8181036020830152611bc88187611a3b565b9050611bd76040830186611596565b611be460608301856114e1565b611bf16080830184611b92565b9695505050505050565b6000602082019050611c106000830184611b92565b92915050565b600060c082019050611c2b60008301896114e1565b611c386020830188611b92565b611c456040830187611b92565b611c526060830186611b92565b611c5f60808301856114e1565b611c6c60a0830184611596565b979650505050505050565b60008060408385031215611c8e57611c8d611442565b5b6000611c9c85828601611522565b925050602083013567ffffffffffffffff811115611cbd57611cbc611447565b5b611cc985828601611863565b9150509250929050565b60008060408385031215611cea57611ce9611442565b5b6000611cf885828601611522565b9250506020611d0985828601611495565b9150509250929050565b7f4e6f7420656e6f7567682066756e64732073656e740000000000000000000000600082015250565b6000611d496015836119f7565b9150611d5482611d13565b602082019050919050565b60006020820190508181036000830152611d7881611d3c565b9050919050565b7f4e487b7100000000000000000000000000000000000000000000000000000000600052601160045260246000fd5b6000611db9826114d7565b91507fffffffffffffffffffffffffffffffffffffffffffffffffffffffffffffffff821415611dec57611deb611d7f565b5b600182019050919050565b6000606082019050611e0c60008301866114e1565b611e196020830185611b92565b611e2660408301846114e1565b949350505050565b7f4e487b7100000000000000000000000000000000000000000000000000000000600052602260045260246000fd5b60006002820490506001821680611e7557607f821691505b60208210811415611e8957611e88611e2e565b5b50919050565b7f54686520746f75726e616d656e742068617320616c726561647920737461727460008201527f6564000000000000000000000000000000000000000000000000000000000000602082015250565b6000611eeb6022836119f7565b9150611ef682611e8f565b604082019050919050565b60006020820190508181036000830152611f1a81611ede565b9050919050565b7f596f7520617265206e6f742070617274206f662074686973207465616d000000600082015250565b6000611f57601d836119f7565b9150611f6282611f21565b602082019050919050565b60006020820190508181036000830152611f8681611f4a565b9050919050565b7f4e487b7100000000000000000000000000000000000000000000000000000000600052603260045260246000fd5b600081519050919050565b600082825260208201905092915050565b6000819050602082019050919050565b611ff18161146c565b82525050565b60006120038383611fe8565b60208301905092915050565b6000602082019050919050565b600061202782611fbc565b6120318185611fc7565b935061203c83611fd8565b8060005b8381101561206d5781516120548882611ff7565b975061205f8361200f565b925050600181019050612040565b5085935050505092915050565b60006020820190508181036000830152612094818461201c565b905092915050565b7f596f7520617265206e6f7420617574686f726973656420746f20656e6420746f60008201527f75726e616d656e74730000000000000000000000000000000000000000000000602082015250565b60006120f86029836119f7565b91506121038261209c565b604082019050919050565b60006020820190508181036000830152612127816120eb565b9050919050565b7f596f7520617265206e6f7420617574686f726973656420746f2068616e646c6560008201527f20626f756e747920636f6c6c656374696f6e7300000000000000000000000000602082015250565b600061218a6033836119f7565b91506121958261212e565b604082019050919050565b600060208201905081810360008301526121b98161217d565b905091905056fea2646970667358221220057e787daed33f84170990bf7e69ebcfc7f54142c26deca6f24d7581dde7091d64736f6c634300080c0033",
  "immutableReferences": {},
  "source": "//SPDX-License-Identifier: GPL-3.0\npragma solidity ^0.8.0;\n\nabstract contract Context {\n    function _msgSender() internal view virtual returns (address) {\n        return msg.sender;\n    }\n\n    function _msgData() internal view virtual returns (bytes calldata) {\n        this; // silence state mutability warning without generating bytecode - see https://github.com/ethereum/solidity/issues/2691\n        return msg.data;\n    }\n\n    function _msgValue() internal view virtual returns (uint256 value) {\n        return msg.value;\n    }\n}\n\nabstract contract Owner is Context {\n    address public owner;\n\n    constructor() {\n        owner = _msgSender();\n    }\n\n    /**\n     * @dev Throws if called by any account other than the owner.\n     */\n    modifier onlyOwner() {\n        require(_msgSender() == owner);\n        _;\n    }\n\n    /**\n     * @dev Check if the current caller is the contract owner.\n     */\n    function isOwner() internal view returns (bool) {\n        return owner == _msgSender();\n    }\n}\n\ncontract Rill is Owner {\n    struct Tournament {\n        uint256 tournamentType; // 5v5, 1v1, 2v2, battle royale, ...\n        string name;\n        bool ongoing;\n        uint256[] teamIds; // based on tournamentType will use players or teams\n        address[] players; // based on tournamentType will use players or teams\n        uint256 fee;\n        uint256[] prize; // [first prize, second prize, etc...]\n        uint256[] badges; // which badges are enabled for this tournament\n        uint256[] bountyIds; // which bounties are enabled for this tournament\n        address owner;\n    }\n\n    uint256 public tournamentId;\n    mapping(uint256 => Tournament) public tournaments;\n\n    struct Bounty {\n        uint256 tournamentId;\n        address placer;\n        address collector;\n        address player;\n        uint256 amount;\n        bool collected;\n    }\n\n    uint256 public bountyId;\n    mapping(uint256 => Bounty) public bounties;\n\n    struct Team {\n        string name;\n        string logo;\n    }\n\n    uint256 public teamId;\n\n    mapping(uint256 => Team) public teams;\n\n    mapping(address => uint256) public playersInTeam;\n\n    /**\n     * @dev Add a Tournament with predefined `name`, `description` and `price`\n     * to the library.\n     *\n     * Returns a boolean value indicating whether the operation succeeded.\n     *\n     * Emits a {NewTournament} event.\n     */\n    function createTournament(\n        uint256 tournamentType,\n        string memory name,\n        uint256[] memory _teamIds,\n        address[] memory players,\n        uint256 fee,\n        uint256[] memory prize,\n        uint256[] memory badges\n    ) public returns (bool success) {\n        Tournament memory tournament = Tournament(\n            tournamentType,\n            name,\n            false,\n            _teamIds,\n            players,\n            fee,\n            prize,\n            badges,\n            new uint256[](0),\n            _msgSender()\n        );\n\n        tournaments[tournamentId] = tournament;\n\n        emit NewTournament(tournamentId++);\n\n        return true;\n    }\n\n    /**\n     * @dev Register for a tournament as team or solo player\n     *\n     * Emits a `NewTournamentRegistration` event.\n     */\n    function registerTeamForTournament(uint256 _tournamentId, uint256 _teamId)\n        public\n        payable\n        returns (bool)\n    {\n        Tournament storage tournament = tournaments[_tournamentId];\n\n        require(\n            tournament.ongoing == false,\n            \"The tournament has already started\"\n        );\n        require(\n            playersInTeam[_msgSender()] == _teamId,\n            \"You are not part of this team\"\n        );\n        require(_msgValue() >= tournament.fee, \"Not enough funds sent\");\n\n        if (_teamId > 0) {\n            tournament.teamIds.push(_teamId);\n        } else {\n            tournament.players.push(_msgSender());\n        }\n\n        emit NewTournamentRegistration(_tournamentId, _msgSender());\n\n        return true;\n    }\n\n    /**\n     * @dev Delete a book from the library. Only the book's owner or the\n     * library's owner is authorised for this operation.\n     *\n     * Returns a boolean value indicating whether the operation succeeded.\n     *\n     * Emits a `EndTournament` event.\n     */\n    function endTournament(uint256 _tournamentId, address[] memory winners)\n        public\n        returns (bool success)\n    {\n        require(isOwner(), \"You are not authorised to end tournaments\");\n\n        Tournament storage tournament = tournaments[_tournamentId];\n\n        tournament.ongoing = false;\n\n        for (uint256 i = 0; i < winners.length; i++) {\n            _sendTokens(winners[i], tournament.prize[i]);\n        }\n\n        emit EndTournament(_tournamentId);\n\n        return true;\n    }\n\n    /**\n     * @dev Create a new Team\n     *\n     * Returns a boolean value indicating whether the operation succeeded.\n     *\n     * Emits a {NewTeam} event.\n     */\n    function createTeam(\n        string memory name,\n        string memory logo,\n        address[] memory players\n    ) public returns (bool success) {\n        Team memory team = Team(name, logo);\n        teams[teamId] = team;\n\n        assignPlayersToTeam(teamId, players);\n\n        emit NewTeam(teamId++);\n\n        return true;\n    }\n\n    /**\n     * @dev Assign players to team\n     *\n     * Returns a boolean value indicating whether the operation succeeded.\n     *\n     * Emits a {PlayersAssignedToTeam} event.\n     */\n    function assignPlayersToTeam(uint256 _teamId, address[] memory _players)\n        public\n        returns (bool success)\n    {\n        for (uint256 i = 0; i < _players.length; i++) {\n            playersInTeam[_players[i]] = _teamId;\n        }\n\n        emit PlayersAssignedToTeam(_teamId, _players);\n\n        return true;\n    }\n\n    /**\n     * @dev Create new bounty\n     *\n     * Emits a `NewBounty` event.\n     */\n    function placeBounty(\n        uint256 _tournamentId,\n        address _player,\n        uint256 _amount\n    ) public payable returns (bool) {\n        require(_msgValue() >= _amount, \"Not enough funds sent\");\n\n        Bounty memory bounty = Bounty(\n            _tournamentId,\n            _msgSender(),\n            address(0),\n            _player,\n            _amount,\n            false\n        );\n        Tournament storage tournament = tournaments[_tournamentId];\n\n        bounties[bountyId] = bounty;\n        tournament.bountyIds.push(bountyId);\n\n        emit BountyPlaced(bountyId++, _tournamentId, _player, _amount);\n\n        return true;\n    }\n\n    /**\n     * @dev Collect a bounty\n     *\n     * Emits a `BountyCollected` event.\n     */\n    function collectBounty(uint256 _bountyId, address _collector)\n        public\n        returns (bool success)\n    {\n        require(\n            isOwner(),\n            \"You are not authorised to handle bounty collections\"\n        );\n\n        Bounty storage bounty = bounties[_bountyId];\n\n        bounty.collected = true;\n        bounty.collector = _collector;\n\n        _sendTokens(_collector, bounty.amount);\n\n        emit BountyCollected(_bountyId, _collector);\n\n        return true;\n    }\n\n    /**\n     * @dev Send tokens\n     */\n    function _sendTokens(address receiver, uint256 value) internal {\n        payable(address(uint160(receiver))).transfer(value);\n    }\n\n    /**\n     * @dev Emitted when a new tournament is created\n     * Note `tournamentId` starts from 0\n     */\n    event NewTournament(uint256 indexed tournamentId);\n\n    /**\n     * @dev Emitted when a player or team registers\n     * Note Currently only player address is being tracked\n     */\n    event NewTournamentRegistration(\n        uint256 indexed tournamentId,\n        address player\n    );\n\n    /**\n     * @dev Emitted when a tournament has ended\n     * Note `tournamentId` starts from 0\n     */\n    event EndTournament(uint256 indexed tournamentId);\n\n    /**\n     * @dev Emitted when a new team is created\n     * Note `teamId` starts from 1\n     */\n    event NewTeam(uint256 indexed tournamentId);\n\n    /**\n     * @dev Emitted when players are assigned to a team\n     * Note `teamId` starts from 1\n     */\n    event PlayersAssignedToTeam(uint256 indexed teamId, address[] players);\n\n    /**\n     * @dev Emitted when a bounty is placed\n     * Note `bountyId` starts from 0\n     */\n    event BountyPlaced(\n        uint256 indexed bountyId,\n        uint256 tournamentId,\n        address player,\n        uint256 amount\n    );\n\n    /**\n     * @dev Emitted when a bounty is collected\n     *\n     */\n    event BountyCollected(uint256 indexed bountyId, address collector);\n}\n",
  "sourcePath": "/Users/obukraa/git/rill-polygon/contracts/Rill.sol",
  "compiler": {
    "name": "solc",
    "version": "0.8.12+commit.f00d7308.Emscripten.clang"
  },
  "schemaVersion": "3.4.5",
  "updatedAt": "2022-08-20T19:35:34.748Z",
  "networkType": "ethereum",
  "devdoc": {
    "events": {
      "BountyCollected(uint256,address)": {
        "details": "Emitted when a bounty is collected"
      },
      "BountyPlaced(uint256,uint256,address,uint256)": {
        "details": "Emitted when a bounty is placed Note `bountyId` starts from 0"
      },
      "EndTournament(uint256)": {
        "details": "Emitted when a tournament has ended Note `tournamentId` starts from 0"
      },
      "NewTeam(uint256)": {
        "details": "Emitted when a new team is created Note `teamId` starts from 1"
      },
      "NewTournament(uint256)": {
        "details": "Emitted when a new tournament is created Note `tournamentId` starts from 0"
      },
      "NewTournamentRegistration(uint256,address)": {
        "details": "Emitted when a player or team registers Note Currently only player address is being tracked"
      },
      "PlayersAssignedToTeam(uint256,address[])": {
        "details": "Emitted when players are assigned to a team Note `teamId` starts from 1"
      }
    },
    "kind": "dev",
    "methods": {
      "assignPlayersToTeam(uint256,address[])": {
        "details": "Assign players to team Returns a boolean value indicating whether the operation succeeded. Emits a {PlayersAssignedToTeam} event."
      },
      "collectBounty(uint256,address)": {
        "details": "Collect a bounty Emits a `BountyCollected` event."
      },
      "createTeam(string,string,address[])": {
        "details": "Create a new Team Returns a boolean value indicating whether the operation succeeded. Emits a {NewTeam} event."
      },
      "createTournament(uint256,string,uint256[],address[],uint256,uint256[],uint256[])": {
        "details": "Add a Tournament with predefined `name`, `description` and `price` to the library. Returns a boolean value indicating whether the operation succeeded. Emits a {NewTournament} event."
      },
      "endTournament(uint256,address[])": {
        "details": "Delete a book from the library. Only the book's owner or the library's owner is authorised for this operation. Returns a boolean value indicating whether the operation succeeded. Emits a `EndTournament` event."
      },
      "placeBounty(uint256,address,uint256)": {
        "details": "Create new bounty Emits a `NewBounty` event."
      },
      "registerTeamForTournament(uint256,uint256)": {
        "details": "Register for a tournament as team or solo player Emits a `NewTournamentRegistration` event."
      }
    },
    "version": 1
  },
  "userdoc": {
    "kind": "user",
    "methods": {},
    "version": 1
  }
}